:100000000C945E000C9486000C9486000C94860080
:100010000C9486000C9486000C9486000C94860048
:100020000C9486000C9486000C9486000C94860038
:100030000C9486000C9486000C9486000C94860028
:100040000C94D8020C9486000C9448030C94220360
:100050000C9486000C9486000C9486000C94860008
:100060000C9486000C948600000000080002010039
:100070000003040700000000000000000000000072
:10008000250028002B0000000000240027002A0083
:10009000040404040404040402020202020203032E
:1000A0000303030301020408102040800102040836
:1000B00010200102040810207A03170611241FBE25
:1000C000CFEFD8E0DEBFCDBF22E0A4E5B1E001C0B4
:1000D0001D92A430B207E1F711E0A0E0B1E0E0EC3E
:1000E000F0E102C005900D92A435B107D9F710E0F8
:1000F000CDE5D0E004C02197FE010E945206CC3528
:10010000D107C9F70E94B5030C9453080C94000062
:1001100090E0FC01EC55FF4F249180579F4FFC016C
:100120008491882399F090E0880F991FFC01EA5789
:10013000FF4FA591B491FC01E458FF4F8591949134
:100140008FB7F894EC91E22BEC938FBF0895AF92A8
:10015000BF92CF92DF92EF92FF920F931F93CF93B4
:10016000DF936C017B018B01040F151FEB015E0116
:10017000AE18BF08C017D10759F06991D601ED91AB
:10018000FC910190F081E02DC6010995892B79F74A
:10019000C501DF91CF911F910F91FF90EF90DF90FC
:1001A000CF90BF90AF900895FC01538D448D252FC3
:1001B00030E0842F90E0821B930B541710F0CF9601
:1001C000089501970895FC01918D828D981761F033
:1001D000A28DAE0FBF2FB11D5D968C91928D9F5F4A
:1001E0009F73928F90E008958FEF9FEF0895FC0129
:1001F000918D828D981731F0828DE80FF11D858DDC
:1002000090E008958FEF9FEF0895FC01918D228D6E
:10021000892F90E0805C9F4F821B91098F739927F3
:1002200008958DE591E00E94050121E0892B09F4F4
:1002300020E0822F089580E090E0892B29F00E9431
:10024000110181110C9400000895FC01A48DA80FE8
:10025000B92FB11DA35ABF4F2C91848D90E0019608
:100260008F739927848FA689B7892C93A089B18928
:100270008C91837080648C93938D848D981306C0C9
:100280000288F389E02D80818F7D80830895EF922D
:10029000FF920F931F93CF93DF93EC0181E0888F40
:1002A0009B8D8C8D98131AC0E889F989808185FF10
:1002B00015C09FB7F894EE89FF896083E889F989B2
:1002C00080818370806480839FBF81E090E0DF91B4
:1002D000CF911F910F91FF90EF900895F62E0B8D07
:1002E00010E00F5F1F4F0F731127E02E8C8D8E11C2
:1002F0000CC00FB607FCFACFE889F989808185FF29
:10030000F5CFCE010E942501F1CFEB8DEC0FFD2F33
:10031000F11DE35AFF4FF0829FB7F8940B8FEA89E3
:10032000FB8980818062CFCFCF93DF93EC01888DF2
:100330008823B9F0AA89BB89E889F9898C9185FD60
:1003400003C0808186FD0DC00FB607FCF7CF8C91EE
:1003500085FFF2CF808185FFEDCFCE010E94250180
:10036000E9CFDF91CF91089590E0FC01E859FF4F6C
:100370002491FC01EC55FF4F3491FC01E057FF4FF5
:10038000E491EE23C9F0222339F0233001F1A8F4DF
:10039000213019F1223029F1F0E0EE0FFF1FE4586F
:1003A000FF4FA591B4918FB7F894EC91611126C0DD
:1003B00030953E233C938FBF08952730A9F0283015
:1003C000C9F0243049F7809180008F7D03C080916F
:1003D00080008F7780938000DFCF84B58F7784BDD6
:1003E000DBCF84B58F7DFBCF8091B0008F7780937A
:1003F000B000D2CF8091B0008F7DF9CF3E2BDACF05
:10040000FC0101900020E9F73197AF01481B590B1F
:10041000BC018DE591E00C94A700FC0180819181E5
:10042000009711F00C94F4060895FC0124813581A5
:10043000232B39F421E0FB018081882349F020E05F
:1004400007C0808191810E94430821E0892BB9F780
:10045000822F08950F931F93CF93DF93EC01888130
:100460009981009759F02A813B812617370730F090
:1004700081E0DF91CF911F910F9108958B016F5F04
:100480007F4F0E947D07009759F0998388831B83D3
:100490000A832C813D81232B59F7FC011082E8CF80
:1004A00080E0E7CFEF92FF920F931F93CF93DF93FC
:1004B000EC017B018A01BA010E942A02288139815C
:1004C000811114C02115310519F0C9010E94F406EB
:1004D000198218821D821C821B821A82CE01DF9132
:1004E000CF911F910F91FF90EF9008951D830C8382
:1004F000B701C9010E944C08F1CFFB010190002017
:10050000E9F73197AF01461B570B0C945202EF925B
:10051000FF920F931F93CF93DF93EC01E090FE01C6
:10052000F090FF01198218821B821A821D821C82A0
:1005300050E040E066E271E00E9452028091FE01CC
:100540009091FF010097F9F087018017910708F457
:100550008C01E091FA01F091FB01E00FF11FF080B6
:1005600010826091FA017091FB016115710599F09B
:10057000CE010E947D028091FA019091FB01080F4B
:10058000191FF801F082CE01DF91CF911F910F91D9
:10059000FF90EF90089588819981009711F00E9453
:1005A000F406198218821D821C821B821A82E3CFF4
:1005B0001F920F920FB60F9211242F933F938F9398
:1005C0009F93AF93BF938091590190915A01A0914D
:1005D0005B01B0915C013091580123E0230F2D376E
:1005E00058F50196A11DB11D209358018093590122
:1005F00090935A01A0935B01B0935C0180915401E8
:1006000090915501A0915601B09157010196A11DFD
:10061000B11D8093540190935501A0935601B0935E
:100620005701BF91AF919F918F913F912F910F9063
:100630000FBE0F901F90189526E8230F0296A11D5C
:10064000B11DD2CF1F920F920FB60F9211242F938C
:100650003F934F935F936F937F938F939F93AF934A
:10066000BF93EF93FF938DE591E00E942501FF91E9
:10067000EF91BF91AF919F918F917F916F915F911A
:100680004F913F912F910F900FBE0F901F90189593
:100690001F920F920FB60F9211242F938F939F9357
:1006A000EF93FF93E0916D01F0916E018081E091F5
:1006B0007301F091740182FD1BC0908180917601DD
:1006C0008F5F8F7320917701821741F0E09176015F
:1006D000F0E0E35AFE4F958F80937601FF91EF9102
:1006E0009F918F912F910F900FBE0F901F90189593
:1006F0008081F4CFEDE5F1E01382128288EE93E081
:10070000A0E0B0E084839583A683B7838AE091E07C
:100710009183808385EC90E09587848784EC90E0DA
:100720009787868780EC90E0918B808B81EC90E0BE
:10073000938B828B82EC90E0958B848B86EC90E09F
:10074000978B868B118E128E138E148EEAEFF1E04A
:1007500011821082138212821582148250E040E0CE
:1007600066E271E0CF010C945202CF93DF9300D088
:1007700000D000D0CDB7DEB7789484B5826084BD58
:1007800084B5816084BD85B5826085BD85B5816095
:1007900085BD80916E00816080936E001092810013
:1007A00080918100826080938100809181008160CE
:1007B000809381008091800081608093800080918F
:1007C000B10084608093B1008091B000816080931B
:1007D000B00080917A00846080937A0080917A00E2
:1007E000826080937A0080917A00816080937A00A1
:1007F00080917A00806880937A001092C100E09125
:100800006D01F0916E0182E08083E0916901F091C9
:100810006A011082E0916B01F0916C018FEC808392
:1008200010927501E0917101F091720186E0808370
:10083000E0916F01F0917001808180618083E0918F
:100840006F01F0917001808188608083E0916F0179
:10085000F0917001808180688083E0916F01F09158
:10086000700180818F7D808382E00E94880083E018
:100870000E94880084E00E94880085E00E94880031
:1008800088E00E94880089E00E9488008AE00E9437
:1008900088008BE00E94880060E082E00E94B40142
:1008A00060E083E00E94B40160E084E00E94B40153
:1008B00060E085E00E94B40160E088E00E94B4013D
:1008C00060E089E00E94B40160E08AE00E94B40127
:1008D00060E08BE00E94B40180E0E82E80E0F82E1A
:1008E0008DE591E00E9405011816190684F58DE545
:1008F00091E00E94E30089831A820091FE01109129
:10090000FF010F5F1F4FB8018AEF91E00E942A029A
:10091000882399F02091FA013091FB018091FE012A
:100920009091FF01BE016F5F7F4F820F931F0E9466
:100930004C081093FF010093FE01E114F10481F2D1
:100940000E941101882361F20E940000C9CF68E172
:1009500071E08AEF91E00E941502882359F08EE140
:1009600091E00E94000266E271E08AEF91E00E944D
:100970007D02E3CF64E271E08AEF91E00E9415020C
:10098000882339F061E082E00E94B40184E291E0C2
:10099000E8CF67E271E08AEF91E00E9415028823B8
:1009A00039F060E082E00E94B40187E291E0D9CFA3
:1009B0006AE271E08AEF91E00E941502882339F023
:1009C00061E083E00E94B4018AE291E0CACF6DE267
:1009D00071E08AEF91E00E941502882339F060E00F
:1009E00083E00E94B4018DE291E0BBCFCE0101967D
:1009F0000E94870260E371E0CE0101960E94150219
:100A0000182FCE0101960E940D02112339F061E0EA
:100A100084E00E94B40180E391E0A3CFCE0101966F
:100A20000E94870263E371E0CE0101960E941502E5
:100A3000182FCE0101960E940D02112339F060E0BB
:100A400084E00E94B40183E391E08BCFCE01019654
:100A50000E94870266E371E0CE0101960E941502B2
:100A6000182FCE0101960E940D02112339F061E08A
:100A700085E00E94B40186E391E073CFCE01019638
:100A80000E94870269E371E0CE0101960E9415027F
:100A9000182FCE0101960E940D02112339F060E05B
:100AA00085E00E94B40189E391E05BCFCE0101961D
:100AB0000E9487026CE371E0CE0101960E9415024C
:100AC000182FCE0101960E940D02112339F061E02A
:100AD00088E00E94B4018CE391E043CFCE010196FF
:100AE0000E9487026FE371E0CE0101960E94150219
:100AF000182FCE0101960E940D02112339F060E0FB
:100B000088E00E94B4018FE391E02BCFCE010196E3
:100B10000E94870262E471E0CE0101960E941502F4
:100B2000182FCE0101960E940D02112339F061E0C9
:100B300089E00E94B40182E491E013CFCE010196D6
:100B40000E94870265E471E0CE0101960E941502C1
:100B5000182FCE0101960E940D02112339F060E09A
:100B600089E00E94B40185E491E0FBCECE010196BC
:100B70000E94870268E471E0CE0101960E9415028E
:100B8000182FCE0101960E940D02112339F061E069
:100B90008AE00E94B40188E491E0E3CECE010196A0
:100BA0000E9487026BE471E0CE0101960E9415025B
:100BB000182FCE0101960E940D02112339F060E03A
:100BC0008AE00E94B4018BE491E0CBCECE01019685
:100BD0000E9487026EE471E0CE0101960E94150228
:100BE000182FCE0101960E940D02112339F061E009
:100BF0008BE00E94B4018EE491E0B3CECE01019669
:100C00000E94870261E571E0CE0101960E94150203
:100C1000182FCE0101960E940D02112309F48DCEEA
:100C200060E08BE00E94B40181E591E09ACE8AEF0A
:100C300091E00C940D022F923F924F925F926F922F
:100C40007F928F929F92AF92BF92CF92DF92EF925C
:100C5000FF920F931F93CF93DF93CDB7DEB7CA1BDD
:100C6000DB0B0FB6F894DEBF0FBECDBF09942A8808
:100C7000398848885F846E847D848C849B84AA84B0
:100C8000B984C884DF80EE80FD800C811B81AA813D
:100C9000B981CE0FD11D0FB6F894DEBF0FBECDBF08
:100CA000ED010895EE0FFF1F0590F491E02D0994DA
:100CB0000F931F93CF93DF938230910510F482E05E
:100CC00090E0E0910202F091030230E020E0B0E019
:100CD000A0E0309799F42115310509F44AC0281B8A
:100CE000390B24303105D8F58A819B816115710556
:100CF00089F1FB0193838283FE0111C04081518100
:100D00000281138148175907E0F04817590799F4F1
:100D1000109761F012960C93129713961C933296CB
:100D2000CF01DF91CF911F910F910895009302029F
:100D300010930302F4CF2115310551F042175307E8
:100D400038F0A901DB019A01BD01DF01F801C1CF33
:100D5000EF01F9CF9093030280930202CDCFFE0101
:100D6000E20FF31F81939193225031093983288335
:100D7000D7CF2091000230910102232B41F4209122
:100D8000020130910301309301022093000220916F
:100D90000001309101012115310541F42DB73EB715
:100DA0004091040150910501241B350BE091000294
:100DB000F0910102E217F307A0F42E1B3F0B281756
:100DC000390778F0AC014E5F5F4F2417350748F0C4
:100DD0004E0F5F1F50930102409300028193919345
:100DE0009FCFF0E0E0E09CCFCF93DF930097E9F056
:100DF000FC01329713821282A0910202B091030289
:100E0000ED0130E020E01097A1F420813181820FC4
:100E1000931F20910002309101022817390709F031
:100E200061C0F0930102E0930002DF91CF91089539
:100E3000EA01CE17DF07E8F54A815B819E01411583
:100E40005105B1F7E901FB83EA8349915991C40F38
:100E5000D51FEC17FD0761F4808191810296840F04
:100E6000951FE90199838883828193819B838A837B
:100E7000F0E0E0E012968D919C9113970097B9F500
:100E80002D913C911197CD010296820F931F2091D5
:100E90000002309101022817390739F6309751F5D1
:100EA0001092030210920202B0930102A09300027A
:100EB000BCCFD383C28340815181840F951FC81753
:100EC000D90761F44E5F5F4F88819981480F591FA0
:100ED000518340838A819B819383828321153105CD
:100EE00009F0B0CFF0930302E09302029ECFFD0120
:100EF000DC01C0CF13821282D7CFB0E0A0E0E3E8DC
:100F0000F7E00C941D068C01009751F4CB010E9470
:100F100058068C01C801CDB7DEB7E0E10C94390664
:100F2000FC01E60FF71F9C0122503109E217F3077D
:100F300008F49DC0D901CD91DC911197C617D70750
:100F400098F0C530D10530F3CE0104978617970786
:100F500008F3C61BD70B2297C193D1936D937C9353
:100F6000CF010E94F406D6CF5B01AC1ABD0A4C013A
:100F70008C0E9D1EA0910202B0910302512C412CB7
:100F8000F12CE12C109731F5809100029091010233
:100F90008815990509F05CC04616570608F058C038
:100FA0008091000190910101009741F48DB79EB7A7
:100FB0004091040150910501841B950BE817F90736
:100FC00008F055C0F0930102E0930002F90171832B
:100FD0006083A0CF8D919C91119712966C9012977F
:100FE00013967C901397A815B90559F56C0142E04A
:100FF000C40ED11CCA14DB0420F1AC014A195B09F0
:10100000DA011296159780F06282738251834083D1
:10101000D9016D937C93E114F10471F0D70113961B
:10102000FC93EE93129776CF22968C0F9D1FF901B9
:1010300091838083F301EFCFF0930302E0930202E8
:1010400069CF4816590608F42C017D01D3019ACFC7
:10105000CB010E9458067C01009749F0AE01B8010F
:101060000E943A08C8010E94F406870153CF10E09D
:1010700000E050CFFB01DC0102C001900D92415015
:101080005040D8F70895FB01DC018D910190801943
:101090000110D9F3990B0895FB01DC0101900D9229
:1010A0000020E1F7089510E0CDE5D0E004C0FE0196
:1010B0000E9452062196CE35D107C9F7F894FFCF8A
:1010C000000004028000000000004701A700D400D7
:1010D00094010501E300F70048656C6C6F006172D4
:1010E000646F6B00314800314C00324800324C00D4
:1010F000334800334C00344800344C003548003548
:101100004C00364800364C00374800374C00384811
:0411100000384C0057
:00000001FF
